{
  "contractName": "ElectionContract",
  "abi": [
    {
      "inputs": [],
      "stateMutability": "nonpayable",
      "type": "constructor"
    },
    {
      "anonymous": false,
      "inputs": [
        {
          "indexed": true,
          "internalType": "uint256",
          "name": "_candidateId",
          "type": "uint256"
        }
      ],
      "name": "VoteEvent",
      "type": "event"
    },
    {
      "anonymous": false,
      "inputs": [
        {
          "indexed": false,
          "internalType": "string",
          "name": "_voterId",
          "type": "string"
        }
      ],
      "name": "VoterRegister",
      "type": "event"
    },
    {
      "inputs": [],
      "name": "candidateCount",
      "outputs": [
        {
          "internalType": "uint256",
          "name": "",
          "type": "uint256"
        }
      ],
      "stateMutability": "view",
      "type": "function",
      "constant": true
    },
    {
      "inputs": [
        {
          "internalType": "uint256",
          "name": "",
          "type": "uint256"
        }
      ],
      "name": "candidateDetails",
      "outputs": [
        {
          "internalType": "string",
          "name": "name",
          "type": "string"
        },
        {
          "internalType": "string",
          "name": "party",
          "type": "string"
        },
        {
          "internalType": "string",
          "name": "gender",
          "type": "string"
        },
        {
          "internalType": "uint256",
          "name": "age",
          "type": "uint256"
        },
        {
          "internalType": "uint256",
          "name": "uniqueId",
          "type": "uint256"
        },
        {
          "internalType": "uint256",
          "name": "voteCount",
          "type": "uint256"
        },
        {
          "internalType": "uint256",
          "name": "candidateId",
          "type": "uint256"
        }
      ],
      "stateMutability": "view",
      "type": "function",
      "constant": true
    },
    {
      "inputs": [],
      "name": "end",
      "outputs": [
        {
          "internalType": "bool",
          "name": "",
          "type": "bool"
        }
      ],
      "stateMutability": "view",
      "type": "function",
      "constant": true
    },
    {
      "inputs": [],
      "name": "owner",
      "outputs": [
        {
          "internalType": "address",
          "name": "",
          "type": "address"
        }
      ],
      "stateMutability": "view",
      "type": "function",
      "constant": true
    },
    {
      "inputs": [],
      "name": "start",
      "outputs": [
        {
          "internalType": "bool",
          "name": "",
          "type": "bool"
        }
      ],
      "stateMutability": "view",
      "type": "function",
      "constant": true
    },
    {
      "inputs": [],
      "name": "voterCount",
      "outputs": [
        {
          "internalType": "uint256",
          "name": "",
          "type": "uint256"
        }
      ],
      "stateMutability": "view",
      "type": "function",
      "constant": true
    },
    {
      "inputs": [
        {
          "internalType": "address",
          "name": "",
          "type": "address"
        }
      ],
      "name": "voterDetails",
      "outputs": [
        {
          "internalType": "address",
          "name": "voterAdd",
          "type": "address"
        },
        {
          "internalType": "string",
          "name": "name",
          "type": "string"
        },
        {
          "internalType": "string",
          "name": "voterId",
          "type": "string"
        },
        {
          "internalType": "bool",
          "name": "hasVoted",
          "type": "bool"
        },
        {
          "internalType": "bool",
          "name": "isVerified",
          "type": "bool"
        }
      ],
      "stateMutability": "view",
      "type": "function",
      "constant": true
    },
    {
      "inputs": [
        {
          "internalType": "uint256",
          "name": "",
          "type": "uint256"
        }
      ],
      "name": "voters",
      "outputs": [
        {
          "internalType": "address",
          "name": "",
          "type": "address"
        }
      ],
      "stateMutability": "view",
      "type": "function",
      "constant": true
    },
    {
      "inputs": [],
      "name": "getOwner",
      "outputs": [
        {
          "internalType": "address",
          "name": "",
          "type": "address"
        }
      ],
      "stateMutability": "view",
      "type": "function",
      "constant": true
    },
    {
      "inputs": [
        {
          "internalType": "string",
          "name": "_name",
          "type": "string"
        },
        {
          "internalType": "string",
          "name": "_party",
          "type": "string"
        },
        {
          "internalType": "string",
          "name": "_gender",
          "type": "string"
        },
        {
          "internalType": "uint256",
          "name": "_age",
          "type": "uint256"
        },
        {
          "internalType": "uint256",
          "name": "_uniqueId",
          "type": "uint256"
        }
      ],
      "name": "addCandidate",
      "outputs": [],
      "stateMutability": "nonpayable",
      "type": "function"
    },
    {
      "inputs": [],
      "name": "getTotalCandidates",
      "outputs": [
        {
          "internalType": "uint256",
          "name": "",
          "type": "uint256"
        }
      ],
      "stateMutability": "view",
      "type": "function",
      "constant": true
    },
    {
      "inputs": [
        {
          "internalType": "string",
          "name": "_name",
          "type": "string"
        },
        {
          "internalType": "string",
          "name": "_voterId",
          "type": "string"
        }
      ],
      "name": "registerVoter",
      "outputs": [],
      "stateMutability": "nonpayable",
      "type": "function"
    },
    {
      "inputs": [],
      "name": "getVoterCount",
      "outputs": [
        {
          "internalType": "uint256",
          "name": "",
          "type": "uint256"
        }
      ],
      "stateMutability": "view",
      "type": "function",
      "constant": true
    },
    {
      "inputs": [
        {
          "internalType": "address",
          "name": "_address",
          "type": "address"
        }
      ],
      "name": "verifyVoter",
      "outputs": [],
      "stateMutability": "nonpayable",
      "type": "function"
    },
    {
      "inputs": [
        {
          "internalType": "uint256",
          "name": "candidateId",
          "type": "uint256"
        }
      ],
      "name": "castVote",
      "outputs": [],
      "stateMutability": "nonpayable",
      "type": "function"
    },
    {
      "inputs": [],
      "name": "startElection",
      "outputs": [],
      "stateMutability": "nonpayable",
      "type": "function"
    },
    {
      "inputs": [],
      "name": "endElection",
      "outputs": [],
      "stateMutability": "nonpayable",
      "type": "function"
    },
    {
      "inputs": [],
      "name": "getStart",
      "outputs": [
        {
          "internalType": "bool",
          "name": "",
          "type": "bool"
        }
      ],
      "stateMutability": "view",
      "type": "function",
      "constant": true
    },
    {
      "inputs": [],
      "name": "getEnd",
      "outputs": [
        {
          "internalType": "bool",
          "name": "",
          "type": "bool"
        }
      ],
      "stateMutability": "view",
      "type": "function",
      "constant": true
    }
  ],
  "bytecode": "0x608060405234801561001057600080fd5b50600080546001600160a01b0319163317815560018190556002556003805461ffff19169055610fcc806100456000396000f3fe608060405234801561001057600080fd5b50600436106101215760003560e01c80636cea31b3116100ad578063a9a981a311610071578063a9a981a31461024a578063be9a655514610253578063c5292c6714610260578063da58c7d91461026b578063efbe1c1c1461027e57600080fd5b80636cea31b3146101d0578063893d20e8146101e35780638a4c8847146102085780638da5cb5b1461021b5780639f05a36d1461022e57600080fd5b806342169e48116100f457806342169e481461016d5780635938750d1461017657806359f784681461019a5780636247e532146101a257806362d73eb8146101c857600080fd5b806309bd0950146101265780630deb56ab1461013b57806311174a29146101525780633eb76b9c1461015a575b600080fd5b610139610134366004610ac0565b610290565b005b6001545b6040519081526020015b60405180910390f35b60025461013f565b610139610168366004610af0565b610316565b61013f60025481565b610189610184366004610ac0565b610443565b604051610149959493929190610b4f565b610139610592565b6101b56101b0366004610af0565b6105f7565b6040516101499796959493929190610b9f565b6101396107c9565b6101396101de366004610ca2565b61082d565b6000546001600160a01b03165b6040516001600160a01b039091168152602001610149565b610139610216366004610d3c565b61094e565b6000546101f0906001600160a01b031681565b600354610100900460ff165b6040519015158152602001610149565b61013f60015481565b60035461023a9060ff1681565b60035460ff1661023a565b6101f0610279366004610af0565b610a96565b60035461023a90610100900460ff1681565b6000546001600160a01b0316331480156102c857506000546001600160a01b0316738b085929046f1d6af5c3fa54ef9fc14b38db6142145b6102ed5760405162461bcd60e51b81526004016102e490610da0565b60405180910390fd5b6001600160a01b03166000908152600660205260409020600301805461ff001916610100179055565b3360009081526006602052604090206003015460ff16156103495760405162461bcd60e51b81526004016102e490610de4565b3360009081526006602052604090206003015460ff6101009091041615156001146103865760405162461bcd60e51b81526004016102e490610de4565b60035460ff1615156001146103ad5760405162461bcd60e51b81526004016102e490610de4565b600354610100900460ff16156103d55760405162461bcd60e51b81526004016102e490610de4565b60008181526004602052604081206005018054600192906103f7908490610e13565b909155505033600090815260066020526040808220600301805460ff191660011790555182917fc00232df16a35660dbcdde113a8565e8848dc6202169f47b8f35e8c2511d40bc91a250565b600660205260009081526040902080546001820180546001600160a01b03909216929161046f90610e3a565b80601f016020809104026020016040519081016040528092919081815260200182805461049b90610e3a565b80156104e85780601f106104bd576101008083540402835291602001916104e8565b820191906000526020600020905b8154815290600101906020018083116104cb57829003601f168201915b5050505050908060020180546104fd90610e3a565b80601f016020809104026020016040519081016040528092919081815260200182805461052990610e3a565b80156105765780601f1061054b57610100808354040283529160200191610576565b820191906000526020600020905b81548152906001019060200180831161055957829003601f168201915b5050506003909301549192505060ff8082169161010090041685565b6000546001600160a01b0316331480156105ca57506000546001600160a01b0316738b085929046f1d6af5c3fa54ef9fc14b38db6142145b6105e65760405162461bcd60e51b81526004016102e490610da0565b6003805461ffff1916610100179055565b60046020526000908152604090208054819061061290610e3a565b80601f016020809104026020016040519081016040528092919081815260200182805461063e90610e3a565b801561068b5780601f106106605761010080835404028352916020019161068b565b820191906000526020600020905b81548152906001019060200180831161066e57829003601f168201915b5050505050908060010180546106a090610e3a565b80601f01602080910402602001604051908101604052809291908181526020018280546106cc90610e3a565b80156107195780601f106106ee57610100808354040283529160200191610719565b820191906000526020600020905b8154815290600101906020018083116106fc57829003601f168201915b50505050509080600201805461072e90610e3a565b80601f016020809104026020016040519081016040528092919081815260200182805461075a90610e3a565b80156107a75780601f1061077c576101008083540402835291602001916107a7565b820191906000526020600020905b81548152906001019060200180831161078a57829003601f168201915b5050505050908060030154908060040154908060050154908060060154905087565b6000546001600160a01b03163314801561080157506000546001600160a01b0316738b085929046f1d6af5c3fa54ef9fc14b38db6142145b61081d5760405162461bcd60e51b81526004016102e490610da0565b6003805461ffff19166001179055565b6000546001600160a01b03163314801561086557506000546001600160a01b0316738b085929046f1d6af5c3fa54ef9fc14b38db6142145b6108815760405162461bcd60e51b81526004016102e490610da0565b6040805160e08101825286815260208082018790528183018690526060820185905260808201849052600060a0830181905260015460c084018190528152600490915291909120815182919081906108d99082610ec3565b50602082015160018201906108ee9082610ec3565b50604082015160028201906109039082610ec3565b50606082015181600301556080820151816004015560a0820151816005015560c0820151816006015590505060018060008282546109419190610e13565b9091555050505050505050565b6040805160a081018252338082526020808301868152838501869052600060608501819052608085018190529283526006909152929020815181546001600160a01b0319166001600160a01b0390911617815591519091829160018201906109b69082610ec3565b50604082015160028201906109cb9082610ec3565b5060608201516003909101805460809093015115156101000261ff00199215159290921661ffff1990931692909217179055600580546001818101835560009283527f036b6384b5eca791c62761152d0c79bb0604c104a5fb6f4eb0703f3154bb3db090910180546001600160a01b031916331790556002805491929091610a54908490610e13565b90915550506040517fb13f48f512656fa50a2403256dba784e03c35de313a802f5017ef5ee65139f4d90610a89908490610f83565b60405180910390a1505050565b60058181548110610aa657600080fd5b6000918252602090912001546001600160a01b0316905081565b600060208284031215610ad257600080fd5b81356001600160a01b0381168114610ae957600080fd5b9392505050565b600060208284031215610b0257600080fd5b5035919050565b6000815180845260005b81811015610b2f57602081850181015186830182015201610b13565b506000602082860101526020601f19601f83011685010191505092915050565b6001600160a01b038616815260a060208201819052600090610b7390830187610b09565b8281036040840152610b858187610b09565b941515606084015250509015156080909101529392505050565b60e081526000610bb260e083018a610b09565b8281036020840152610bc4818a610b09565b90508281036040840152610bd88189610b09565b9150508560608301528460808301528360a08301528260c083015298975050505050505050565b634e487b7160e01b600052604160045260246000fd5b600082601f830112610c2657600080fd5b813567ffffffffffffffff80821115610c4157610c41610bff565b604051601f8301601f19908116603f01168101908282118183101715610c6957610c69610bff565b81604052838152866020858801011115610c8257600080fd5b836020870160208301376000602085830101528094505050505092915050565b600080600080600060a08688031215610cba57600080fd5b853567ffffffffffffffff80821115610cd257600080fd5b610cde89838a01610c15565b96506020880135915080821115610cf457600080fd5b610d0089838a01610c15565b95506040880135915080821115610d1657600080fd5b50610d2388828901610c15565b9598949750949560608101359550608001359392505050565b60008060408385031215610d4f57600080fd5b823567ffffffffffffffff80821115610d6757600080fd5b610d7386838701610c15565b93506020850135915080821115610d8957600080fd5b50610d9685828601610c15565b9150509250929050565b60208082526024908201527f2a2a2a2a2a206f6e6c792041646d696e20766572696669636174696f6e206572604082015263726f722160e01b606082015260800190565b6020808252601590820152742a2a2a2a2a2063617374566f7465206572726f722160581b604082015260600190565b80820180821115610e3457634e487b7160e01b600052601160045260246000fd5b92915050565b600181811c90821680610e4e57607f821691505b602082108103610e6e57634e487b7160e01b600052602260045260246000fd5b50919050565b601f821115610ebe57600081815260208120601f850160051c81016020861015610e9b5750805b601f850160051c820191505b81811015610eba57828155600101610ea7565b5050505b505050565b815167ffffffffffffffff811115610edd57610edd610bff565b610ef181610eeb8454610e3a565b84610e74565b602080601f831160018114610f265760008415610f0e5750858301515b600019600386901b1c1916600185901b178555610eba565b600085815260208120601f198616915b82811015610f5557888601518255948401946001909101908401610f36565b5085821015610f735787850151600019600388901b60f8161c191681555b5050505050600190811b01905550565b602081526000610ae96020830184610b0956fea2646970667358221220bc4a0c5bc35addd6b811bba1a45503e42575b38be1702a2cc8e01540d428a11b64736f6c63430008130033",
  "immutableReferences": {},
  "source": "// SPDX-License-Identifier: GPL-3.0\npragma solidity >=0.4.16 <0.9.0;\n\ncontract ElectionContract {\n    address public owner;\n    uint public candidateCount;\n    uint public voterCount;\n    bool public start;\n    bool public end;\n\n    constructor() {\n        owner = msg.sender;\n        candidateCount = 0;\n        voterCount = 0;\n        start = false;\n        end = false;\n    }\n\n    function getOwner() public view returns (address) {\n        return owner;\n    }\n\n    modifier onlyAdmin() {\n        require(\n            msg.sender == owner &&\n                owner == 0x8b085929046f1d6AF5C3fa54Ef9fc14b38Db6142,\n            \"***** only Admin verification error!\"\n        );\n        _;\n    }\n\n    struct Candidate {\n        string name;\n        string party;\n        string gender;\n        uint age;\n        uint uniqueId;\n        uint voteCount;\n        uint candidateId;\n    }\n\n    mapping(uint => Candidate) public candidateDetails;\n\n    function addCandidate(\n        string memory _name,\n        string memory _party,\n        string memory _gender,\n        uint _age,\n        uint _uniqueId\n    ) public onlyAdmin {\n        Candidate memory newCandidate = Candidate({\n            name: _name,\n            party: _party,\n            gender: _gender,\n            age: _age,\n            uniqueId: _uniqueId,\n            voteCount: 0,\n            candidateId: candidateCount\n        });\n        candidateDetails[candidateCount] = newCandidate;\n        candidateCount += 1;\n    }\n\n    function getTotalCandidates() public view returns (uint) {\n        return candidateCount;\n    }\n\n    struct Voter {\n        address voterAdd;\n        string name;\n        string voterId;\n        bool hasVoted;\n        bool isVerified;\n    }\n\n    address[] public voters;\n    mapping(address => Voter) public voterDetails;\n\n    event VoterRegister(string _voterId);\n\n    event VoteEvent(uint indexed _candidateId);\n\n    function registerVoter(string memory _name, string memory _voterId) public {\n        Voter memory newVoter = Voter({\n            voterAdd: msg.sender,\n            name: _name,\n            voterId: _voterId,\n            hasVoted: false,\n            isVerified: false\n        });\n        voterDetails[msg.sender] = newVoter;\n        voters.push(msg.sender);\n        voterCount += 1;\n        emit VoterRegister(_voterId);\n    }\n\n    function getVoterCount() public view returns (uint) {\n        return voterCount;\n    }\n\n    function verifyVoter(address _address) public onlyAdmin {\n        voterDetails[_address].isVerified = true;\n    }\n\n    function castVote(uint candidateId) public {\n        require(\n            voterDetails[msg.sender].hasVoted == false,\n            \"***** castVote error!\"\n        );\n        require(\n            voterDetails[msg.sender].isVerified == true,\n            \"***** castVote error!\"\n        );\n        require(start == true, \"***** castVote error!\");\n        require(end == false, \"***** castVote error!\");\n        candidateDetails[candidateId].voteCount += 1;\n        voterDetails[msg.sender].hasVoted = true;\n        emit VoteEvent(candidateId);\n    }\n\n    function startElection() public onlyAdmin {\n        start = true;\n        end = false;\n    }\n\n    function endElection() public onlyAdmin {\n        start = false;\n        end = true;\n    }\n\n    function getStart() public view returns (bool) {\n        return start;\n    }\n\n    function getEnd() public view returns (bool) {\n        return end;\n    }\n}\n",
  "sourcePath": "/Users/csuftitan/Documents/voting-dapp-with-react-truffle-ganache-and-solidity-main/contracts/ElectionContract.sol",
  "compiler": {
    "name": "solc",
    "version": "0.8.19+commit.7dd6d404.Emscripten.clang"
  },
  "schemaVersion": "3.4.16",
  "updatedAt": "2024-12-05T22:38:02.065Z",
  "networkType": "ethereum",
  "devdoc": {
    "kind": "dev",
    "methods": {},
    "version": 1
  },
  "userdoc": {
    "kind": "user",
    "methods": {},
    "version": 1
  }
}